{
  "_format": "hh-sol-artifact-1",
  "contractName": "Funds",
  "sourceName": "contracts/contract/contract.sol",
  "abi": [
    {
      "inputs": [
        {
          "internalType": "address",
          "name": "_owner",
          "type": "address"
        }
      ],
      "stateMutability": "payable",
      "type": "constructor"
    },
    {
      "inputs": [],
      "name": "stop",
      "outputs": [],
      "stateMutability": "nonpayable",
      "type": "function"
    },
    {
      "inputs": [],
      "name": "totalFunds",
      "outputs": [
        {
          "internalType": "uint256",
          "name": "",
          "type": "uint256"
        }
      ],
      "stateMutability": "view",
      "type": "function"
    },
    {
      "inputs": [
        {
          "internalType": "uint256",
          "name": "_amount",
          "type": "uint256"
        }
      ],
      "name": "withdraw",
      "outputs": [],
      "stateMutability": "nonpayable",
      "type": "function"
    }
  ],
  "bytecode": "0x6080604052604051610552380380610552833981810160405281019061002591906100d6565b80600160006101000a81548173ffffffffffffffffffffffffffffffffffffffff021916908373ffffffffffffffffffffffffffffffffffffffff1602179055503460008190555050610103565b600080fd5b600073ffffffffffffffffffffffffffffffffffffffff82169050919050565b60006100a382610078565b9050919050565b6100b381610098565b81146100be57600080fd5b50565b6000815190506100d0816100aa565b92915050565b6000602082840312156100ec576100eb610073565b5b60006100fa848285016100c1565b91505092915050565b610440806101126000396000f3fe608060405234801561001057600080fd5b50600436106100415760003560e01c806307da68f5146100465780632e1a7d4d14610050578063968ed6001461006c575b600080fd5b61004e61008a565b005b61006a60048036038101906100659190610267565b6100cd565b005b610074610226565b60405161008191906102a3565b60405180910390f35b33600160006101000a81548173ffffffffffffffffffffffffffffffffffffffff021916908373ffffffffffffffffffffffffffffffffffffffff160217905550565b600160009054906101000a900473ffffffffffffffffffffffffffffffffffffffff1673ffffffffffffffffffffffffffffffffffffffff163373ffffffffffffffffffffffffffffffffffffffff161461015d576040517f08c379a00000000000000000000000000000000000000000000000000000000081526004016101549061031b565b60405180910390fd5b6000548111156101a2576040517f08c379a000000000000000000000000000000000000000000000000000000000815260040161019990610387565b60405180910390fd5b806000808282546101b391906103d6565b92505081905550600160009054906101000a900473ffffffffffffffffffffffffffffffffffffffff1673ffffffffffffffffffffffffffffffffffffffff166108fc829081150290604051600060405180830381858888f19350505050158015610222573d6000803e3d6000fd5b5050565b60005481565b600080fd5b6000819050919050565b61024481610231565b811461024f57600080fd5b50565b6000813590506102618161023b565b92915050565b60006020828403121561027d5761027c61022c565b5b600061028b84828501610252565b91505092915050565b61029d81610231565b82525050565b60006020820190506102b86000830184610294565b92915050565b600082825260208201905092915050565b7f6e6f7420746865206f776e657200000000000000000000000000000000000000600082015250565b6000610305600d836102be565b9150610310826102cf565b602082019050919050565b60006020820190508181036000830152610334816102f8565b9050919050565b7f496e73756666696369656e742066756e64730000000000000000000000000000600082015250565b60006103716012836102be565b915061037c8261033b565b602082019050919050565b600060208201905081810360008301526103a081610364565b9050919050565b7f4e487b7100000000000000000000000000000000000000000000000000000000600052601160045260246000fd5b60006103e182610231565b91506103ec83610231565b9250828203905081811115610404576104036103a7565b5b9291505056fea2646970667358221220fc1e6a1e1553fdc950f07d1dedc298576a8a9b863e429201b93b33c576c803f264736f6c634300081c0033",
  "linkReferences": {},
  "deployedLinkReferences": {}
}